:100000000C9435010C9466010C9466010C94660105
:100010000C9466010C9466010C9466010C946601C4
:100020000C9466010C9466010C9466010C946601B4
:100030000C9466010C9466010C9466010C946601A4
:100040000C9466010C9466010C9466010C94660194
:100050000C9466010C9466010C9466010C94F603F2
:100060000C9466010C946A040C9440040C94660190
:100070000C9466010C9466010C9466010C94660164
:100080000C9466010C9466010C9466010C94660154
:100090000C9466010C9466010C9466010C94660144
:1000A0000C9466010C9466010C9466010C94660134
:1000B0000C9466010C9466010C9466010C94660124
:1000C0000C9466010C9466010C9466010C94660114
:1000D0000C9466010C9466010C9466010C94660104
:1000E0000C9466010C9462030C94D6010C94CE011E
:1000F0000C94DD020C9498010C94C4010C94BB0286
:100100000C94D2010C94C8010C94B7010C94B30167
:100110000C94EE010C94AF010C94BB010C947F0283
:100120000C94DC010C94CF020C9415030C94AC02DB
:100130000C94E4010C94BE010C94EA010C94E001CF
:100140000C949D010C941606000021002400270049
:100150002A002D00300033000101000004010701D6
:100160000A0100002200250028002B002E0031008B
:10017000340002010000050108010B0100000A0B18
:1001800002090C0D0E080703040100000000000026
:10019000000000000000000000000000000000005F
:1001A000000000000000000012111000000000001C
:1001B000000000000000000000000000000000003F
:1001C0000000000020002300260029002C002F0042
:1001D00032000001000003010601090105050505C3
:1001E000070508080808020202020A0A08080404AF
:1001F00004040101010101010101030303030303DD
:100200000303040707070C0C0C0C0C0C0C0C02026B
:10021000020206060606060606060B0B0B0B0B0B68
:100220000B0B0102102020080810204010204080F5
:1002300002010201080402010102040810204080AA
:100240008040201008040201800402018040201038
:100250000804020108040201010204081020408081
:100260000102040810204080160611241FBECFEFA3
:10027000D1E2DEBFCDBF00E00CBF12E0A0E0B2E0F3
:10028000EAE9FCE000E00BBF02C007900D92AA3340
:10029000B107D9F722E0AAE3B2E001C01D92A03E67
:1002A000B207E1F711E0C5E3D1E000E006C0219715
:1002B0000109802FFE010E944306C433D10780E06C
:1002C0000807A9F70E94E5040C944B060C94000063
:1002D000282F30E0F901E458FE4F9491F901EE5DCA
:1002E000FD4F449124523E4FF9012491222309F4F9
:1002F00035C0992311F191509231F8F4E92FF0E0D3
:100300008827EA57FE4F8F4F0C944306B701BB0175
:100310009801AF01B3019D01BE01C401C801CE0126
:10032000D201D601DC01E0019D01E401EA01EE0108
:10033000809180008F7780938000E22FF0E0EE0FB5
:10034000FF1FEE59FE4FA591B4918FB7F894EC9131
:10035000611148C040954E234C938FBF0895809102
:1003600080008F7DE8CF80918000877FE4CF84B5C7
:100370008F7784BDE2CF84B58F7DFBCF8091B000B5
:100380008F778093B000D9CF8091B0008F7DF9CF67
:10039000809190008F7780939000CFCF80919000D4
:1003A0008F7DF9CF80919000877FF5CF8091A0005D
:1003B0008F778093A000C1CF8091A0008F7DF9CF6F
:1003C0008091A000877FF5CF809120018F77809367
:1003D0002001B3CF809120018F7DF9CF8091200142
:1003E000877FF5CF4E2BB8CFCF93DF9390E0FC0102
:1003F000EE5DFD4F249184529E4FFC018491882331
:10040000D1F090E0880F991FFC01E85BFE4FA591A9
:10041000B491FC01EE59FE4FC591D49161110EC00B
:100420009FB7F8948C91E22FE0958E238C932881CE
:10043000E223E8839FBFDF91CF9108958FB7F894AF
:10044000EC91E22BEC938FBFF6CF3FB7F8948091FD
:100450003F0290914002A0914102B091420226B524
:10046000A89B05C02F3F19F00196A11DB11D3FBFEC
:10047000BA2FA92F982F8827BC01CD01620F711DBB
:10048000811D911D42E0660F771F881F991F4A95B5
:10049000D1F708958F929F92AF92BF92CF92DF9241
:1004A000EF92FF920E9425024B015C0188ECC82E5E
:1004B000D12CE12CF12C0E942502681979098A09B6
:1004C0009B09683E734081059105A8F321E0C21A9B
:1004D000D108E108F10888EE880E83E0981EA11C7F
:1004E000B11CC114D104E104F10429F7FF90EF908D
:1004F000DF90CF90BF90AF909F908F900895AF9274
:10050000BF92CF92DF92EF92FF920F931F93CF9300
:10051000DF936C017B018B01040F151FEB015E0162
:10052000AE18BF08C017D10759F06991D601ED91F7
:10053000FC910190F081E02DC6011995892B79F786
:10054000C501DF91CF911F910F91FF90EF90DF9048
:10055000CF90BF90AF900895FC01538D448D252F0F
:1005600030E0842F90E0821B930B541710F0CF964D
:10057000089501970895FC01918D828D981761F07F
:10058000A28DAE0FBF2FB11D5D968C91928D9F5F96
:100590009F73928F90E008958FEF9FEF0895FC0175
:1005A000918D828D981731F0828DE80FF11D858D28
:1005B00090E008958FEF9FEF0895FC01918D228DBB
:1005C000892F90E0805C9F4F821B91098F73992740
:1005D000089583E492E00E94DD0221E0892B09F472
:1005E00020E0822F0895FC01A48DA80FB92FB11D22
:1005F000A35ABF4F2C91848D90E001968F73992759
:10060000848FA689B7892C93A089B1898C91837036
:1006100080648C93938D848D981306C00288F3892F
:10062000E02D80818F7D80830895EF92FF920F935C
:100630001F93CF93DF93EC0181E0888F9B8D8C8D8E
:1006400098131AC0E889F989808185FF15C09FB782
:10065000F894EE89FF896083E889F9898081837045
:10066000806480839FBF81E090E0DF91CF911F91F4
:100670000F91FF90EF900895F62E0B8D10E00F5F15
:100680001F4F0F731127E02E8C8D8E110CC00FB6EB
:1006900007FCFACFE889F989808185FFF5CFCE0183
:1006A0000E94F302F1CFEB8DEC0FFD2FF11DE35A09
:1006B000FF4FF0829FB7F8940B8FEA89FB89808106
:1006C0008062CFCFCF93DF93EC01888D8823B9F080
:1006D000AA89BB89E889F9898C9185FD03C080814D
:1006E00086FD0DC00FB607FCF7CF8C9185FFF2CFCA
:1006F000808185FFEDCFCE010E94F302E9CFDF912B
:10070000CF91089580E090E0892B29F00E94E902C2
:1007100081110E94000080E090E0892B49F080E088
:1007200090E0892B29F00E94000081110E940000B6
:1007300080E090E0892B49F080E090E0892B29F05F
:100740000E94000081110E94000080E090E0892B4F
:1007500049F080E090E0892B29F00E94000081118F
:100760000C9400000895CF93DF93FC0101900020CA
:10077000E9F73197AF01481B590BBC0183E492E0C4
:100780000E947F02EC0142E050E062E172E083E40B
:1007900092E00E947F028C0F9D1FDF91CF91089500
:1007A0000F931F9390E0FC01EE5DFD4F6491FC01FF
:1007B000E452FE4FE491F0E0EE0FFF1FEE53FE4FC8
:1007C0008591949100E412E42FE030E040E00E9433
:1007D000A004611571058105910529F06F5F7F4FB8
:1007E0008F4F9F4F9F701F910F9108951F920F92EF
:1007F0000FB60F9211242F933F938F939F93AF9334
:10080000BF9380913B0290913C02A0913D02B09138
:100810003E0230913A0223E0230F2D3758F501961E
:10082000A11DB11D20933A0280933B0290933C029C
:10083000A0933D02B0933E0280913F02909140020E
:10084000A0914102B09142020196A11DB11D809379
:100850003F0290934002A0934102B0934202BF91A5
:10086000AF919F918F913F912F910F900FBE0F905D
:100870001F90189526E8230F0296A11DB11DD2CF17
:100880001F920F920FB60F9211240BB60F922F9357
:100890003F934F935F936F937F938F939F93AF9308
:1008A000BF93EF93FF9383E492E00E94F302FF91E2
:1008B000EF91BF91AF919F918F917F916F915F91D8
:1008C0004F913F912F910F900BBE0F900FBE0F9045
:1008D0001F9018951F920F920FB60F9211240BB60E
:1008E0000F922F938F939F93EF93FF93E091530277
:1008F000F09154028081E0915902F0915A0282FDF8
:100900001DC0908180915C028F5F8F7320915D028A
:10091000821741F0E0915C02F0E0ED5BFD4F958FB6
:1009200080935C02FF91EF919F918F912F910F9097
:100930000BBE0F900FBE0F901F9018958081F2CFC5
:10094000CF92DF92EF92FF920F931F93E82FF92F30
:1009500005C0015011092109310961F190819623E7
:100960009417B9F305C0015011092109310911F19A
:10097000908196239413F7CFC12CD12CE12CF12C2C
:100980000AC08FEFC81AD80AE80AF80A0C151D0524
:100990002E053F0579F080818623841791F36C2D15
:1009A0007D2D8E2D9F2D1F910F91FF90EF90DF9049
:1009B000CF90089560E070E080E090E01F910F918B
:1009C000FF90EF90DF90CF900895789484B5826087
:1009D00084BD84B5816084BD85B5826085BD85B5E3
:1009E000816085BD80916E00816080936E00109261
:1009F00081008091810082608093810080918100DC
:100A0000816080938100809180008160809380006C
:100A10008091B10084608093B1008091B0008160CA
:100A20008093B000809191008260809391008091CA
:100A3000910081608093910080919000816080930B
:100A400090008091A10082608093A1008091A1001C
:100A500081608093A1008091A00081608093A000BC
:100A60008091210182608093210180912101816028
:100A700080932101809120018160809320018091E9
:100A80007A00846080937A0080917A0082608093FB
:100A90007A0080917A00816080937A0080917A0058
:100AA000806880937A001092C10061E088E10E9422
:100AB000F40161E08AE10E94F40161E085E20E94B4
:100AC000F40161E086E20E94F40161E087E20E94A5
:100AD000F40161E088E20E94F40160E089E20E9492
:100AE000F40161E085E20E94680160E086E20E9414
:100AF0006801E0915302F091540282E08083E0911A
:100B00004F02F09150021082E0915102F091520296
:100B10008FEC808310925B02E0915702F0915802B3
:100B200086E08083E0915502F091560280818061D9
:100B30008083E0915502F091560280818860808325
:100B4000E0915502F0915602808180688083E091A7
:100B50005502F091560280818F7D808360E087E2AC
:100B60000E94680160E088E20E94680189E20E94B8
:100B7000D0032B010E944A0261E087E20E946801D3
:100B800061E088E20E94680189E20E94D0034B0183
:100B90000E944A0260E087E20E94680161E088E208
:100BA0000E94680189E20E94D0036B010E944A0200
:100BB000C20181579109419788F4C4018754910972
:100BC000439760F4C6018D5891090E9738F485E17A
:100BD00092E00E94B3030E948203C0CF83E3481ACD
:100BE000510889E048165104F0F4C401895C910968
:100BF0000E9740F4C601875991090E9718F48BE1BE
:100C000092E0E7CF8EE7881A910883E18816910475
:100C100050F488E8C81AD10883E1C816D10418F442
:100C200080E292E0D6CF88E292E0D3CFE3E4F2E034
:100C30001382128288EE93E0A0E0B0E08483958373
:100C4000A683B78384E092E09183808385EC90E073
:100C50009587848784EC90E09787868780EC90E086
:100C6000918B808B81EC90E0938B828B82EC90E077
:100C7000958B848B86EC90E0978B868B118E128EF1
:100C8000138E148E0895EE0FFF1F881F8BBF0790E1
:0A0C9000F691E02D1994F894FFCFBF
:100C9A000000000015037F02AC026203DD02BB0202
:100CAA00CF020D0A00566572646500526F6A6F00C2
:100CBA004E6172616E6A6100436F6C6F72206E6F73
:0A0CCA002076C3A16C69646F00007E
:00000001FF
